:020000040800F2
:1000000060060020350200083D0200083F0200089B
:1000100041020008430200084502000800000000F9
:10002000000000000000000000000000470200087F
:1000300049020008000000004B0200084D020008C1
:100040004F0200084F0200084F0200084F0200084C
:100050004F0200084F0200084F0200084F0200083C
:100060004F0200084F0200084F0200084F0200082C
:100070004F0200084F0200084F0200084F0200081C
:100080004F0200084F0200084F0200084F0200080C
:100090004F0200084F0200084F0200084F020008FC
:1000A0004F0200084F0200084F0200084F020008EC
:1000B0004F0200084F0200084F0200084F020008DC
:1000C0004F0200084F0200084F0200084F020008CC
:1000D0004F0200084F0200084F0200084F020008BC
:1000E0004F0200084F0200084F0200084F020008AC
:1000F0004F0200084F0200084F0200084F0200089C
:100100004F0200084F0200084F0200084F0200088B
:100110004F0200084F0200084F0200084F0200087B
:100120004F0200084F0200084F0200084F0200086B
:100130004F0200084F0200084F0200084F0200085B
:1001400000000000000000000000000000000000AF
:100150004F0200084F0200084F0200084F0200083B
:100160004F0200084F0200084F0200084F0200082B
:100170004F0200084F0200084F0200084F0200081B
:100180004F02000800F002F800F044F814A696E8C8
:10019000000CB244B344DA4501D100F03BF8BAE8B0
:1001A0000F000FA696E83000A5EB040504EB060748
:1001B000AAEB0704A7F101074FEA15154FEA34141B
:1001C000A4F10104AC4201D300F024F813F0010FB4
:1001D00018BFFB1A43F0010300F001F8DBE71847F2
:1001E000B0010000C001000070470000002300249F
:1001F00000250026103A28BF78C1FBD8520728BF37
:1002000030C148BF0B6070471FB500F0B4F81FBD88
:1002100010B510BD00F033F81146FFF7F5FF00F000
:1002200091F800F051F803B4FFF7F2FF03BC00F0BF
:1002300087F800000948804709480047FEE7FEE7C5
:10024000FEE7FEE7FEE7FEE7FEE7FEE7FEE7FEE786
:1002500004480549054A064B70470000E5020008BE
:100260008501000860000020600600206002002078
:1002700060020020704770477047704770477546AE
:1002800000F02CF8AE4605006946534620F0070002
:10029000854618B020B5FFF7DBFFBDE820404FF0E2
:1002A00000064FF000074FF000084FF0000BAC467F
:1002B000ACE8C009ACE8C009ACE8C009ACE8C009CA
:1002C00021F007018D46704710B50446AFF300805A
:1002D0002046BDE81040FFF7A6BF00000048704769
:1002E000000000204EF68850CEF20000026841F275
:1002F000000142F47002C4F2020102600A6842F096
:1003000001020A600A689207FCD54A6822F00302DB
:100310004A6000BF4A6812F00C0FFBD10A684FF622
:10032000FF73CFF6F2631A400A6000224A600A6344
:100330004FF41F028A604FF0006140F8801C704744
:100340007047000042F20002C0F60002116800236C
:10035000C2F6FE7350680B40B3F1005F0AD14EF64F
:100360000853CEF2000372B61A6081F3088862B6B1
:10037000804700BFFEE7F1EE100A4FF6FF71C0F2B2
:10038000C03120EA010040F04070E1EE100A7047F1
:10039000A00300080000002060060000EC01000837
:040000050800018569
:00000001FF
